:020000040800F2
:1000000000000120C10200081103000811030008CC
:10001000110300081103000811030008000000008C
:1000200000000000000000000000000011030008B4
:10003000110300080000000011030008110300086C
:100040001103000811030008110300081103000840
:100050001103000811030008110300081103000830
:100060001103000811030008110300081103000820
:100070001103000811030008110300081103000810
:10008000110300081103000811030008000000001C
:100090000000000000000000000000001103000844
:1000A00011030008110300081103000811030008E0
:1000B00011030008110300081103000811030008D0
:1000C00011030008110300081103000811030008C0
:1000D00011030008110300081103000800000000CC
:1000E00011030008110300081103000800000000BC
:1000F00000000000000000000000000011030008E4
:10010000000000001103000811030008110300089B
:1001100000000000000000000000000000000000DF
:10012000110300081103000811030008110300085F
:1001300011030008000000000000000000000000A3
:100140000000000000000000000000001103000893
:10015000110300081103000811030008110300082F
:100160001103000811030008000000000000000057
:10017000000000000000000000000000000000007F
:100180000000000011030008000000000000000053
:04019000110300084F
:100194000348044B834202D0034B03B11847704712
:1001A4000000002000000020000000000548064B6D
:1001B4001B1AD90F01EBA301491002D0034B03B161
:1001C40018477047000000200000002000000000D5
:1001D40010B5064C237843B9FFF7DAFF044B13B18B
:1001E4000448AFF300800123237010BD00000020F9
:1001F400000000005C03000808B5054B1BB105496D
:100204000548AFF30080BDE80840FFF7CFBF00BF4B
:1002140000000000040000205C030008034AD2F838
:10022400303843F00403C2F83038704700300240DD
:100234000023834200D1704740F6FF7200BF013AA9
:10024400FCD10133F5E70000044AD2F8003823F06A
:10025400406343F08063C2F80038704700000240F6
:10026400044A012303FA00F0D2F818380343C2F811
:100274001838704700000240044A1030D2F81818A9
:10028400012383400B43C2F8183870470000024032
:1002940008B5FFF7C3FFFFF7D7FF0D20FFF7E0FF17
:1002A4004FF41670FFF7C4FF0D20FFF7E5FF4FF47E
:1002B4001670FFF7BDFFF0E770470000DFF834D099
:1002C400FFF7FAFF0C480D490D4A002302E0D45809
:1002D400C4500433C4188C42F9D30A4A0A4C00238C
:1002E40001E013600432A242FBD300F011F8FFF7DF
:1002F400CFFF704700000120000000200000002014
:100304007C030008000000201C000020FEE7000021
:1003140070B50D4B0D4D5B1B9C100026A64209D1F8
:1003240000F01AF80A4D0B4B5B1B9C100026A642EA
:1003340005D170BD55F8043B98470136EEE755F8F2
:10034400043B98470136F2E774030008740300087D
:100354007403000878030008F8B500BFF8BC08BCB3
:100364009E467047F8B500BFF8BC08BC9E4670476F
:04037400FD0100087F
:04037800D5010008A3
:04000005080002C12C
:00000001FF
