:020000040800F2
:10000000000001203D0300088D0300088D03000857
:100010008D0300088D0300088D0300080000000018
:100020000000000000000000000000008D03000838
:100030008D030008000000008D0300088D030008F8
:100040008D0300088D0300088D0300088D03000850
:100050008D0300088D0300088D0300088D03000840
:100060008D0300088D0300088D0300088D03000830
:100070008D0300088D0300088D0300088D03000820
:100080008D0300088D0300088D03000800000000A8
:100090000000000000000000000000008D030008C8
:1000A0008D0300088D0300088D0300088D030008F0
:1000B0008D0300088D0300088D0300088D030008E0
:1000C0008D0300088D0300088D0300088D030008D0
:1000D0008D0300088D0300088D0300080000000058
:1000E0008D0300088D0300088D0300080000000048
:1000F0000000000000000000000000008D03000868
:10010000000000008D0300088D0300088D03000827
:1001100000000000000000000000000000000000DF
:100120008D0300088D0300088D0300088D0300086F
:100130008D03000800000000000000000000000027
:100140000000000000000000000000008D03000817
:100150008D0300088D0300088D0300088D0300083F
:100160008D0300088D03000800000000000000005F
:10017000000000000000000000000000000000007F
:10018000000000008D0300080000000000000000D7
:040190008D030008D3
:100194000348044B834202D0034B03B11847704712
:1001A4000000002000000020000000000548064B6D
:1001B4001B1AD90F01EBA301491002D0034B03B161
:1001C40018477047000000200000002000000000D5
:1001D40010B5064C237843B9FFF7DAFF044B13B18B
:1001E4000448AFF300800123237010BD00000020F9
:1001F40000000000D803000808B5054B1BB10549F1
:100204000548AFF30080BDE80840FFF7CFBF00BF4B
:100214000000000004000020D8030008164BD3F8A7
:10022400002CD3F80408D3F8001822F0070242F097
:10023400020210B5C3F8002CD3F808280F4C22F49E
:100244007C4222F0F30242F4A05242F00202044043
:10025400C3F808280A48D3F8302841F080712043B5
:1002640041F4803142F00502C3F80408C3F80018D1
:10027400C3F8302810BD00BF003002400080FCFFEE
:10028400195441000023834200D1704740F6FF72A5
:1002940000BF013AFCD10133F5E700000C4BD3F861
:1002A400002822F0406242F08062C3F80028D3F8AC
:1002B400082842F04062C3F808289A6842F0FF0117
:1002C4001A68996022F0FF0242F055021A607047E2
:1002D40000000240034A012303FA00F09369034338
:1002E4009361704700000240034A10309169012372
:1002F40083400B43936170470000024010B5002413
:100304002046FFF7E7FF4FF47A70FFF7BBFF204664
:10031400FFF7EAFF01344FF47A70FFF7B3FF042CC0
:10032400EED110BD08B5FFF779FFFFF7B7FFFFF770
:10033400E5FFFCE770470000DFF834D0FFF7FAFF71
:100344000C480D490D4A002302E0D458C45004332C
:10035400C4188C42F9D30A4A0A4C002301E0136002
:100364000432A242FBD300F011F8FFF7DBFF704721
:10037400000001200000002000000020F803000815
:10038400000000201C000020FEE7000070B50D4BAB
:100394000D4D5B1B9C100026A64209D100F01AF8F3
:1003A4000A4D0B4B5B1B9C100026A64205D170BD69
:1003B40055F8043B98470136EEE755F8043B984757
:1003C4000136F2E7F0030008F0030008F003000828
:1003D400F4030008F8B500BFF8BC08BC9E4670479B
:0C03E400F8B500BFF8BC08BC9E4670478E
:0403F000FD01000803
:0403F400D501000827
:040000050800033DAF
:00000001FF
